:100000000C945C000C94F1010C94CA010C947900DE
:100010000C9479000C9479000C9479000C9479007C
:100020000C9479000C9479000C9479000C9479006C
:100030000C9479000C9479000C9479000C9479005C
:100040000C9480010C9479000C9479000C94790044
:100050000C9479000C9479000C9479000C9479003C
:100060000C9479000C947900000000002400270013
:100070002A0000000000250028002B0004040404CE
:100080000404040402020202020203030303030342
:10009000010204081020408001020408102001021F
:1000A00004081020000000080002010000030407FB
:1000B000000000000000000011241FBECFEFD8E0B8
:1000C000DEBFCDBF11E0A0E0B1E0EEE5F6E002C09A
:1000D00005900D92A430B107D9F721E0A4E0B1E07A
:1000E00001C01D92A331B207E1F70E9418020C94DF
:1000F0002D030C9400008230C8F4E82FF0E0EE0FDE
:10010000FF1FE050FF4F71836083813041F0809189
:1001100069008C7F816080936900E89A08958091DE
:100120006900837F846080936900E99A089590E074
:10013000FC01EC55FF4F2491FC01E057FF4F349137
:10014000FC01E458FF4FE491EE23C9F0222339F07B
:10015000233001F1A8F4213019F1223029F1F0E027
:10016000EE0FFF1FEE58FF4FA591B4918FB7F89493
:10017000EC91611126C030953E233C938FBF0895CA
:100180002730A9F02830C9F0243049F78091800049
:100190008F7D03C0809180008F7780938000DFCFB8
:1001A00084B58F7784BDDBCF84B58F7DFBCF809105
:1001B000B0008F778093B000D2CF8091B0008F7D58
:1001C000F9CF3E2BDACFCF93DF9390E0FC01E057DD
:1001D000FF4F249184589F4FFC0184918823D1F0D4
:1001E00090E0880F991FFC01E859FF4FA591B49149
:1001F000FC01EE58FF4FC591D49161110EC09FB71D
:10020000F8948C91E22FE0958E238C932881E22341
:10021000E8839FBFDF91CF9108958FB7F894EC9159
:10022000E22BEC938FBFF6CF3FB7F89480910F018C
:1002300090911001A0911101B091120126B5A89BD7
:1002400005C02F3F19F00196A11DB11D3FBFBA2F68
:10025000A92F982F8827BC01CD01620F711D811D28
:10026000911D42E0660F771F881F991F4A95D1F7AD
:1002700008958F929F92AF92BF92CF92DF92EF92AA
:10028000FF924B015C010E9414016B017C010E94F2
:1002900014016C197D098E099F09683E7340810520
:1002A0009105A8F321E0821A9108A108B10888EE0F
:1002B000C80E83E0D81EE11CF11C81149104A10436
:1002C000B10429F7FF90EF90DF90CF90BF90AF90EF
:1002D0009F908F9008958091080190910901019657
:1002E00090930901809308010895809106019091EF
:1002F00007010196909307018093060108950895E0
:100300001F920F920FB60F9211242F933F938F934A
:100310009F93AF93BF9380910B0190910C01A0919B
:100320000D01B0910E0130910A0123E0230F2D370A
:1003300058F50196A11DB11D20930A0180930B0170
:1003400090930C01A0930D01B0930E0180910F01C9
:1003500090911001A0911101B09112010196A11D7F
:10036000B11D80930F0190931001A0931101B093E0
:100370001201BF91AF919F918F913F912F910F905B
:100380000FBE0F901F90189526E8230F0296A11D0F
:10039000B11DD2CF1F920F920FB60F9211242F933F
:1003A0003F934F935F936F937F938F939F93AF93FD
:1003B000BF93EF93FF93E0910201F0910301099540
:1003C000FF91EF91BF91AF919F918F917F916F912D
:1003D0005F914F913F912F910F900FBE0F901F9003
:1003E00018951F920F920FB60F9211242F933F93DF
:1003F0004F935F936F937F938F939F93AF93BF932D
:10040000EF93FF93E0910001F09101010995FF91B5
:10041000EF91BF91AF919F918F917F916F915F917C
:100420004F913F912F910F900FBE0F901F901895F5
:10043000789484B5826084BD84B5816084BD85B5BF
:10044000826085BD85B5816085BD80916E008160CB
:1004500080936E0010928100809181008260809371
:100460008100809181008160809381008091800073
:100470008160809380008091B10084608093B1009E
:100480008091B00081608093B00080917A00846098
:1004900080937A0080917A00826080937A008091C4
:1004A0007A00816080937A0080917A0080688093DE
:1004B0007A001092C10061E088E00E94E30061E0F0
:1004C00089E00E94E30061E08AE00E94E30061E0CD
:1004D0008BE00E94E30061E08CE00E94E30061E0B9
:1004E0008DE00E94E30060E082E00E94E30060E0B3
:1004F00083E00E94E3006BE671E080E00E947B00F5
:1005000065E771E081E00E947B00C0E0D0E001E09F
:1005100010E0809104019091050161E0892B09F0C0
:100520005AC088E00E94970061E08DE00E94970029
:1005300020910801309109018091060190910701F5
:10054000821793070CF04DC024313105F4F161E0BE
:100550008CE00E94970061E089E00E94970060EDC6
:1005600077E080E090E00E94390160E08DE00E9439
:10057000970060E08CE00E94970061E08BE00E94B1
:10058000970068EE73E080E090E00E94390160E03F
:1005900089E00E94970060E088E00E94970061E097
:1005A0008AE00E94970068E873E180E090E00E9492
:1005B0003901109305010093040110920901109272
:1005C00008011092070110920601209709F4A1CFAB
:1005D0000E9400009ECF8AE00E94970061E08BE0BD
:1005E000A5CF281739078CF744977CF361E089E0A1
:1005F0000E94970061E08CE00E94970060ED77E038
:1006000080E090E00E94390160E08AE00E9497005B
:1006100060E089E00E94970061E088E00E94970016
:1006200068EE73E080E090E00E94390160E08CE0C9
:100630000E94970060E08BE00E94970061E08DE0EF
:100640000E94970068E873E180E090E00E94390121
:0E0650001092050110920401B0CFF894FFCF74
:04065E007F017F0198
:00000001FF
